{"abi":[{"type":"constructor","inputs":[],"stateMutability":"nonpayable"},{"type":"function","name":"acceptTransfer","inputs":[{"name":"_transferId","type":"uint256","internalType":"uint256"}],"outputs":[],"stateMutability":"nonpayable"},{"type":"function","name":"admin","inputs":[],"outputs":[{"name":"","type":"address","internalType":"address"}],"stateMutability":"view"},{"type":"function","name":"approveUser","inputs":[{"name":"_user","type":"address","internalType":"address"}],"outputs":[],"stateMutability":"nonpayable"},{"type":"function","name":"balanceOf","inputs":[{"name":"_user","type":"address","internalType":"address"},{"name":"_tokenId","type":"uint256","internalType":"uint256"}],"outputs":[{"name":"","type":"uint256","internalType":"uint256"}],"stateMutability":"view"},{"type":"function","name":"balances","inputs":[{"name":"","type":"address","internalType":"address"},{"name":"","type":"uint256","internalType":"uint256"}],"outputs":[{"name":"","type":"uint256","internalType":"uint256"}],"stateMutability":"view"},{"type":"function","name":"cancelRegistration","inputs":[],"outputs":[],"stateMutability":"nonpayable"},{"type":"function","name":"createToken","inputs":[{"name":"_name","type":"string","internalType":"string"},{"name":"_metadata","type":"string","internalType":"string"},{"name":"_parentId","type":"uint256","internalType":"uint256"},{"name":"_initialAmount","type":"uint256","internalType":"uint256"}],"outputs":[{"name":"","type":"uint256","internalType":"uint256"}],"stateMutability":"nonpayable"},{"type":"function","name":"getPendingTransfers","inputs":[{"name":"_user","type":"address","internalType":"address"}],"outputs":[{"name":"","type":"uint256[]","internalType":"uint256[]"}],"stateMutability":"view"},{"type":"function","name":"getToken","inputs":[{"name":"_tokenId","type":"uint256","internalType":"uint256"}],"outputs":[{"name":"","type":"tuple","internalType":"struct SupplyChain.Token","components":[{"name":"id","type":"uint256","internalType":"uint256"},{"name":"name","type":"string","internalType":"string"},{"name":"metadata","type":"string","internalType":"string"},{"name":"creator","type":"address","internalType":"address"},{"name":"parentId","type":"uint256","internalType":"uint256"},{"name":"createdAt","type":"uint256","internalType":"uint256"},{"name":"exists","type":"bool","internalType":"bool"}]}],"stateMutability":"view"},{"type":"function","name":"getTokenHistory","inputs":[{"name":"_tokenId","type":"uint256","internalType":"uint256"}],"outputs":[{"name":"","type":"uint256[]","internalType":"uint256[]"}],"stateMutability":"view"},{"type":"function","name":"getTokenTransferHistory","inputs":[{"name":"_tokenId","type":"uint256","internalType":"uint256"}],"outputs":[{"name":"","type":"uint256[]","internalType":"uint256[]"}],"stateMutability":"view"},{"type":"function","name":"getTransfer","inputs":[{"name":"_transferId","type":"uint256","internalType":"uint256"}],"outputs":[{"name":"","type":"tuple","internalType":"struct SupplyChain.Transfer","components":[{"name":"id","type":"uint256","internalType":"uint256"},{"name":"tokenId","type":"uint256","internalType":"uint256"},{"name":"from","type":"address","internalType":"address"},{"name":"to","type":"address","internalType":"address"},{"name":"amount","type":"uint256","internalType":"uint256"},{"name":"status","type":"uint8","internalType":"enum SupplyChain.TransferStatus"},{"name":"createdAt","type":"uint256","internalType":"uint256"},{"name":"resolvedAt","type":"uint256","internalType":"uint256"}]}],"stateMutability":"view"},{"type":"function","name":"getUser","inputs":[{"name":"_user","type":"address","internalType":"address"}],"outputs":[{"name":"","type":"tuple","internalType":"struct SupplyChain.User","components":[{"name":"userAddress","type":"address","internalType":"address"},{"name":"role","type":"uint8","internalType":"enum SupplyChain.Role"},{"name":"status","type":"uint8","internalType":"enum SupplyChain.UserStatus"},{"name":"metadata","type":"string","internalType":"string"},{"name":"registeredAt","type":"uint256","internalType":"uint256"}]}],"stateMutability":"view"},{"type":"function","name":"getUserTokens","inputs":[{"name":"_user","type":"address","internalType":"address"}],"outputs":[{"name":"","type":"uint256[]","internalType":"uint256[]"}],"stateMutability":"view"},{"type":"function","name":"initiateTransfer","inputs":[{"name":"_tokenId","type":"uint256","internalType":"uint256"},{"name":"_to","type":"address","internalType":"address"},{"name":"_amount","type":"uint256","internalType":"uint256"}],"outputs":[{"name":"","type":"uint256","internalType":"uint256"}],"stateMutability":"nonpayable"},{"type":"function","name":"isApproved","inputs":[{"name":"_user","type":"address","internalType":"address"}],"outputs":[{"name":"","type":"bool","internalType":"bool"}],"stateMutability":"view"},{"type":"function","name":"pendingTransfers","inputs":[{"name":"","type":"address","internalType":"address"},{"name":"","type":"uint256","internalType":"uint256"}],"outputs":[{"name":"","type":"uint256","internalType":"uint256"}],"stateMutability":"view"},{"type":"function","name":"register","inputs":[{"name":"_role","type":"uint8","internalType":"enum SupplyChain.Role"},{"name":"_metadata","type":"string","internalType":"string"}],"outputs":[],"stateMutability":"nonpayable"},{"type":"function","name":"rejectTransfer","inputs":[{"name":"_transferId","type":"uint256","internalType":"uint256"}],"outputs":[],"stateMutability":"nonpayable"},{"type":"function","name":"rejectUser","inputs":[{"name":"_user","type":"address","internalType":"address"}],"outputs":[],"stateMutability":"nonpayable"},{"type":"function","name":"tokenCounter","inputs":[],"outputs":[{"name":"","type":"uint256","internalType":"uint256"}],"stateMutability":"view"},{"type":"function","name":"tokens","inputs":[{"name":"","type":"uint256","internalType":"uint256"}],"outputs":[{"name":"id","type":"uint256","internalType":"uint256"},{"name":"name","type":"string","internalType":"string"},{"name":"metadata","type":"string","internalType":"string"},{"name":"creator","type":"address","internalType":"address"},{"name":"parentId","type":"uint256","internalType":"uint256"},{"name":"createdAt","type":"uint256","internalType":"uint256"},{"name":"exists","type":"bool","internalType":"bool"}],"stateMutability":"view"},{"type":"function","name":"transferCounter","inputs":[],"outputs":[{"name":"","type":"uint256","internalType":"uint256"}],"stateMutability":"view"},{"type":"function","name":"transfers","inputs":[{"name":"","type":"uint256","internalType":"uint256"}],"outputs":[{"name":"id","type":"uint256","internalType":"uint256"},{"name":"tokenId","type":"uint256","internalType":"uint256"},{"name":"from","type":"address","internalType":"address"},{"name":"to","type":"address","internalType":"address"},{"name":"amount","type":"uint256","internalType":"uint256"},{"name":"status","type":"uint8","internalType":"enum SupplyChain.TransferStatus"},{"name":"createdAt","type":"uint256","internalType":"uint256"},{"name":"resolvedAt","type":"uint256","internalType":"uint256"}],"stateMutability":"view"},{"type":"function","name":"userTokens","inputs":[{"name":"","type":"address","internalType":"address"},{"name":"","type":"uint256","internalType":"uint256"}],"outputs":[{"name":"","type":"uint256","internalType":"uint256"}],"stateMutability":"view"},{"type":"function","name":"users","inputs":[{"name":"","type":"address","internalType":"address"}],"outputs":[{"name":"userAddress","type":"address","internalType":"address"},{"name":"role","type":"uint8","internalType":"enum SupplyChain.Role"},{"name":"status","type":"uint8","internalType":"enum SupplyChain.UserStatus"},{"name":"metadata","type":"string","internalType":"string"},{"name":"registeredAt","type":"uint256","internalType":"uint256"}],"stateMutability":"view"},{"type":"event","name":"TokenCreated","inputs":[{"name":"tokenId","type":"uint256","indexed":true,"internalType":"uint256"},{"name":"creator","type":"address","indexed":true,"internalType":"address"},{"name":"name","type":"string","indexed":false,"internalType":"string"},{"name":"parentId","type":"uint256","indexed":false,"internalType":"uint256"}],"anonymous":false},{"type":"event","name":"TransferAccepted","inputs":[{"name":"transferId","type":"uint256","indexed":true,"internalType":"uint256"},{"name":"timestamp","type":"uint256","indexed":false,"internalType":"uint256"}],"anonymous":false},{"type":"event","name":"TransferInitiated","inputs":[{"name":"transferId","type":"uint256","indexed":true,"internalType":"uint256"},{"name":"tokenId","type":"uint256","indexed":true,"internalType":"uint256"},{"name":"from","type":"address","indexed":false,"internalType":"address"},{"name":"to","type":"address","indexed":false,"internalType":"address"},{"name":"amount","type":"uint256","indexed":false,"internalType":"uint256"}],"anonymous":false},{"type":"event","name":"TransferRejected","inputs":[{"name":"transferId","type":"uint256","indexed":true,"internalType":"uint256"},{"name":"timestamp","type":"uint256","indexed":false,"internalType":"uint256"}],"anonymous":false},{"type":"event","name":"UserRegistered","inputs":[{"name":"user","type":"address","indexed":true,"internalType":"address"},{"name":"role","type":"uint8","indexed":false,"internalType":"enum SupplyChain.Role"},{"name":"timestamp","type":"uint256","indexed":false,"internalType":"uint256"}],"anonymous":false},{"type":"event","name":"UserStatusChanged","inputs":[{"name":"user","type":"address","indexed":true,"internalType":"address"},{"name":"status","type":"uint8","indexed":false,"internalType":"enum SupplyChain.UserStatus"},{"name":"timestamp","type":"uint256","indexed":false,"internalType":"uint256"}],"anonymous":false}],"bytecode":{"object":"0x608060405234801561000f575f5ffd5b50335f5f6101000a81548173ffffffffffffffffffffffffffffffffffffffff021916908373ffffffffffffffffffffffffffffffffffffffff1602179055506040518060a001604052805f5f9054906101000a900473ffffffffffffffffffffffffffffffffffffffff1673ffffffffffffffffffffffffffffffffffffffff168152602001600160058111156100aa576100a961029f565b5b8152602001600260048111156100c3576100c261029f565b5b81526020016040518060400160405280601481526020017f53797374656d2041646d696e6973747261746f7200000000000000000000000081525081526020014281525060035f5f5f9054906101000a900473ffffffffffffffffffffffffffffffffffffffff1673ffffffffffffffffffffffffffffffffffffffff1673ffffffffffffffffffffffffffffffffffffffff1681526020019081526020015f205f820151815f015f6101000a81548173ffffffffffffffffffffffffffffffffffffffff021916908373ffffffffffffffffffffffffffffffffffffffff1602179055506020820151815f0160146101000a81548160ff021916908360058111156101d2576101d161029f565b5b02179055506040820151815f0160156101000a81548160ff021916908360048111156102015761020061029f565b5b0217905550606082015181600101908161021b9190610509565b50608082015181600201559050505f5f9054906101000a900473ffffffffffffffffffffffffffffffffffffffff1673ffffffffffffffffffffffffffffffffffffffff167feea238307e4577ec1b8645d63505c2d57767cfc074bb5ab579a615525f07a25760014260405161029292919061062d565b60405180910390a2610654565b7f4e487b71000000000000000000000000000000000000000000000000000000005f52602160045260245ffd5b5f81519050919050565b7f4e487b71000000000000000000000000000000000000000000000000000000005f52604160045260245ffd5b7f4e487b71000000000000000000000000000000000000000000000000000000005f52602260045260245ffd5b5f600282049050600182168061034757607f821691505b60208210810361035a57610359610303565b5b50919050565b5f819050815f5260205f209050919050565b5f6020601f8301049050919050565b5f82821b905092915050565b5f600883026103bc7fffffffffffffffffffffffffffffffffffffffffffffffffffffffffffffffff82610381565b6103c68683610381565b95508019841693508086168417925050509392505050565b5f819050919050565b5f819050919050565b5f61040a610405610400846103de565b6103e7565b6103de565b9050919050565b5f819050919050565b610423836103f0565b61043761042f82610411565b84845461038d565b825550505050565b5f5f905090565b61044e61043f565b61045981848461041a565b505050565b5b8181101561047c576104715f82610446565b60018101905061045f565b5050565b601f8211156104c15761049281610360565b61049b84610372565b810160208510156104aa578190505b6104be6104b685610372565b83018261045e565b50505b505050565b5f82821c905092915050565b5f6104e15f19846008026104c6565b1980831691505092915050565b5f6104f983836104d2565b9150826002028217905092915050565b610512826102cc565b67ffffffffffffffff81111561052b5761052a6102d6565b5b6105358254610330565b610540828285610480565b5f60209050601f831160018114610571575f841561055f578287015190505b61056985826104ee565b8655506105d0565b601f19841661057f86610360565b5f5b828110156105a657848901518255600182019150602085019450602081019050610581565b868310156105c357848901516105bf601f8916826104d2565b8355505b6001600288020188555050505b505050505050565b600681106105e9576105e861029f565b5b50565b5f8190506105f9826105d8565b919050565b5f610608826105ec565b9050919050565b610618816105fe565b82525050565b610627816103de565b82525050565b5f6040820190506106405f83018561060f565b61064d602083018461061e565b9392505050565b614f1c806106615f395ff3fe608060405234801561000f575f5ffd5b506004361061018b575f3560e01c80639377d711116100dc578063d082e38111610095578063e4b50cb81161006f578063e4b50cb814610538578063e5a078a714610568578063f851a44014610572578063f9f411d8146105905761018b565b8063d082e381146104e2578063d3eb954114610500578063d624fdb61461051c5761018b565b80639377d711146103b75780639ec67aca146103ee578063a87430ba1461041e578063c16fe90714610452578063ca409cd514610482578063cbf1304d146104b25761018b565b806340f50adb11610149578063519dc8d211610123578063519dc8d2146102f757806356f698a314610327578063673448dd146103575780636f77926b146103875761018b565b806340f50adb146102755780634dc92885146102a55780634f64b2be146102c15761018b565b8062fdd58e1461018f57806312effc32146101bf5780632142ae2c146101db578063274fae7c1461020b578063376f383d146102275780633cf8ddf214610257575b5f5ffd5b6101a960048036038101906101a491906134e0565b6105c0565b6040516101b6919061352d565b60405180910390f35b6101d960048036038101906101d49190613546565b610616565b005b6101f560048036038101906101f09190613546565b6108a4565b6040516102029190613628565b60405180910390f35b61022560048036038101906102209190613546565b610a03565b005b610241600480360381019061023c9190613648565b610f6c565b60405161024e9190613628565b60405180910390f35b61025f610fff565b60405161026c919061352d565b60405180910390f35b61028f600480360381019061028a9190613673565b611005565b60405161029c919061352d565b60405180910390f35b6102bf60048036038101906102ba9190613648565b6116a1565b005b6102db60048036038101906102d69190613546565b61189d565b6040516102ee979695949392919061375c565b60405180910390f35b610311600480360381019061030c9190613648565b611a12565b60405161031e9190613628565b60405180910390f35b610341600480360381019061033c9190613903565b611aa5565b60405161034e919061352d565b60405180910390f35b610371600480360381019061036c9190613648565b61205d565b60405161037e919061399f565b60405180910390f35b6103a1600480360381019061039c9190613648565b6120d9565b6040516103ae9190613b3b565b60405180910390f35b6103d160048036038101906103cc9190613546565b612292565b6040516103e5989796959493929190613ba1565b60405180910390f35b610408600480360381019061040391906134e0565b612320565b604051610415919061352d565b60405180910390f35b61043860048036038101906104339190613648565b61234b565b604051610449959493929190613c3b565b60405180910390f35b61046c60048036038101906104679190613546565b61243a565b6040516104799190613d42565b60405180910390f35b61049c60048036038101906104979190613546565b6125d0565b6040516104a99190613628565b60405180910390f35b6104cc60048036038101906104c791906134e0565b61274b565b6040516104d9919061352d565b60405180910390f35b6104ea61276b565b6040516104f7919061352d565b60405180910390f35b61051a60048036038101906105159190613d7f565b612771565b005b61053660048036038101906105319190613648565b612aeb565b005b610552600480360381019061054d9190613546565b612ce8565b60405161055f9190613e88565b60405180910390f35b610570612f1f565b005b61057a61308d565b6040516105879190613ea8565b60405180910390f35b6105aa60048036038101906105a591906134e0565b6130b1565b6040516105b7919061352d565b60405180910390f35b5f60065f8473ffffffffffffffffffffffffffffffffffffffff1673ffffffffffffffffffffffffffffffffffffffff1681526020019081526020015f205f8381526020019081526020015f2054905092915050565b6002600481111561062a576106296139c7565b5b60035f3373ffffffffffffffffffffffffffffffffffffffff1673ffffffffffffffffffffffffffffffffffffffff1681526020019081526020015f205f0160159054906101000a900460ff166004811115610689576106886139c7565b5b146106c9576040517f08c379a00000000000000000000000000000000000000000000000000000000081526004016106c090613f0b565b60405180910390fd5b5f60055f8381526020019081526020015f2090505f815f015403610722576040517f08c379a000000000000000000000000000000000000000000000000000000000815260040161071990613f73565b60405180910390fd5b3373ffffffffffffffffffffffffffffffffffffffff16816003015f9054906101000a900473ffffffffffffffffffffffffffffffffffffffff1673ffffffffffffffffffffffffffffffffffffffff16146107b3576040517f08c379a00000000000000000000000000000000000000000000000000000000081526004016107aa90613fdb565b60405180910390fd5b5f60028111156107c6576107c56139c7565b5b816005015f9054906101000a900460ff1660028111156107e9576107e86139c7565b5b14610829576040517f08c379a000000000000000000000000000000000000000000000000000000000815260040161082090614043565b60405180910390fd5b6002816005015f6101000a81548160ff021916908360028111156108505761084f6139c7565b5b021790555042816007018190555061086833836130dc565b817f3f18a321ffb1d7e7b2c6609d22f829c69be5dfb0c074e81096d85bc32a3a4cb342604051610898919061352d565b60405180910390a25050565b606060045f8381526020019081526020015f206006015f9054906101000a900460ff16610906576040517f08c379a00000000000000000000000000000000000000000000000000000000081526004016108fd906140ab565b60405180910390fd5b5f5f90505f8390505b5f8114610940578180610921906140f6565b92505060045f8281526020019081526020015f2060040154905061090f565b5f8267ffffffffffffffff81111561095b5761095a6137df565b5b6040519080825280602002602001820160405280156109895781602001602082028036833780820191505090505b5090508491505f5f90505b838110156109f7578282826001876109ac919061413d565b6109b6919061413d565b815181106109c7576109c6614170565b5b60200260200101818152505060045f8481526020019081526020015f206004015492508080600101915050610994565b50809350505050919050565b60026004811115610a1757610a166139c7565b5b60035f3373ffffffffffffffffffffffffffffffffffffffff1673ffffffffffffffffffffffffffffffffffffffff1681526020019081526020015f205f0160159054906101000a900460ff166004811115610a7657610a756139c7565b5b14610ab6576040517f08c379a0000000000000000000000000000000000000000000000000000000008152600401610aad90613f0b565b60405180910390fd5b5f60055f8381526020019081526020015f2090505f815f015403610b0f576040517f08c379a0000000000000000000000000000000000000000000000000000000008152600401610b0690613f73565b60405180910390fd5b3373ffffffffffffffffffffffffffffffffffffffff16816003015f9054906101000a900473ffffffffffffffffffffffffffffffffffffffff1673ffffffffffffffffffffffffffffffffffffffff1614610ba0576040517f08c379a0000000000000000000000000000000000000000000000000000000008152600401610b97906141e7565b60405180910390fd5b5f6002811115610bb357610bb26139c7565b5b816005015f9054906101000a900460ff166002811115610bd657610bd56139c7565b5b14610c16576040517f08c379a0000000000000000000000000000000000000000000000000000000008152600401610c0d90614043565b60405180910390fd5b806004015460065f836002015f9054906101000a900473ffffffffffffffffffffffffffffffffffffffff1673ffffffffffffffffffffffffffffffffffffffff1673ffffffffffffffffffffffffffffffffffffffff1681526020019081526020015f205f836001015481526020019081526020015f20541015610cd0576040517f08c379a0000000000000000000000000000000000000000000000000000000008152600401610cc79061424f565b60405180910390fd5b806004015460065f836002015f9054906101000a900473ffffffffffffffffffffffffffffffffffffffff1673ffffffffffffffffffffffffffffffffffffffff1673ffffffffffffffffffffffffffffffffffffffff1681526020019081526020015f205f836001015481526020019081526020015f205f828254610d56919061413d565b92505081905550806004015460065f836003015f9054906101000a900473ffffffffffffffffffffffffffffffffffffffff1673ffffffffffffffffffffffffffffffffffffffff1673ffffffffffffffffffffffffffffffffffffffff1681526020019081526020015f205f836001015481526020019081526020015f205f828254610de3919061426d565b92505081905550806004015460065f836003015f9054906101000a900473ffffffffffffffffffffffffffffffffffffffff1673ffffffffffffffffffffffffffffffffffffffff1673ffffffffffffffffffffffffffffffffffffffff1681526020019081526020015f205f836001015481526020019081526020015f205403610ef15760075f826003015f9054906101000a900473ffffffffffffffffffffffffffffffffffffffff1673ffffffffffffffffffffffffffffffffffffffff1673ffffffffffffffffffffffffffffffffffffffff1681526020019081526020015f208160010154908060018154018082558091505060019003905f5260205f20015f90919091909150555b6001816005015f6101000a81548160ff02191690836002811115610f1857610f176139c7565b5b0217905550428160070181905550610f3033836130dc565b817f5a383dc20013863bc33e0bd3469c718e1747705f67bccf3cda79a896b8525cc642604051610f60919061352d565b60405180910390a25050565b606060085f8373ffffffffffffffffffffffffffffffffffffffff1673ffffffffffffffffffffffffffffffffffffffff1681526020019081526020015f20805480602002602001604051908101604052809291908181526020018280548015610ff357602002820191905f5260205f20905b815481526020019060010190808311610fdf575b50505050509050919050565b60025481565b5f6002600481111561101a576110196139c7565b5b60035f3373ffffffffffffffffffffffffffffffffffffffff1673ffffffffffffffffffffffffffffffffffffffff1681526020019081526020015f205f0160159054906101000a900460ff166004811115611079576110786139c7565b5b146110b9576040517f08c379a00000000000000000000000000000000000000000000000000000000081526004016110b090613f0b565b60405180910390fd5b60045f8581526020019081526020015f206006015f9054906101000a900460ff16611119576040517f08c379a0000000000000000000000000000000000000000000000000000000008152600401611110906140ab565b60405180910390fd5b5f73ffffffffffffffffffffffffffffffffffffffff168373ffffffffffffffffffffffffffffffffffffffff1603611187576040517f08c379a000000000000000000000000000000000000000000000000000000000815260040161117e906142ea565b60405180910390fd5b3373ffffffffffffffffffffffffffffffffffffffff168373ffffffffffffffffffffffffffffffffffffffff16036111f5576040517f08c379a00000000000000000000000000000000000000000000000000000000081526004016111ec90614352565b60405180910390fd5b5f8211611237576040517f08c379a000000000000000000000000000000000000000000000000000000000815260040161122e906143ba565b60405180910390fd5b8160065f3373ffffffffffffffffffffffffffffffffffffffff1673ffffffffffffffffffffffffffffffffffffffff1681526020019081526020015f205f8681526020019081526020015f205410156112c6576040517f08c379a00000000000000000000000000000000000000000000000000000000081526004016112bd90614422565b60405180910390fd5b600260048111156112da576112d96139c7565b5b60035f8573ffffffffffffffffffffffffffffffffffffffff1673ffffffffffffffffffffffffffffffffffffffff1681526020019081526020015f205f0160159054906101000a900460ff166004811115611339576113386139c7565b5b14611379576040517f08c379a00000000000000000000000000000000000000000000000000000000081526004016113709061448a565b60405180910390fd5b5f60035f3373ffffffffffffffffffffffffffffffffffffffff1673ffffffffffffffffffffffffffffffffffffffff1681526020019081526020015f205f0160149054906101000a900460ff1690505f60035f8673ffffffffffffffffffffffffffffffffffffffff1673ffffffffffffffffffffffffffffffffffffffff1681526020019081526020015f205f0160149054906101000a900460ff16905061142382826131d6565b611462576040517f08c379a000000000000000000000000000000000000000000000000000000000815260040161145990614518565b60405180910390fd5b60025f815480929190611474906140f6565b91905055505f60025490506040518061010001604052808281526020018881526020013373ffffffffffffffffffffffffffffffffffffffff1681526020018773ffffffffffffffffffffffffffffffffffffffff1681526020018681526020015f60028111156114e8576114e76139c7565b5b81526020014281526020015f81525060055f8381526020019081526020015f205f820151815f0155602082015181600101556040820151816002015f6101000a81548173ffffffffffffffffffffffffffffffffffffffff021916908373ffffffffffffffffffffffffffffffffffffffff1602179055506060820151816003015f6101000a81548173ffffffffffffffffffffffffffffffffffffffff021916908373ffffffffffffffffffffffffffffffffffffffff1602179055506080820151816004015560a0820151816005015f6101000a81548160ff021916908360028111156115da576115d96139c7565b5b021790555060c0820151816006015560e0820151816007015590505060085f8773ffffffffffffffffffffffffffffffffffffffff1673ffffffffffffffffffffffffffffffffffffffff1681526020019081526020015f2081908060018154018082558091505060019003905f5260205f20015f909190919091505586817faba4521bf0b469fd90c564c1a5d168884d1fb05c2a6e6e6065d7921522683bbb33898960405161168c93929190614536565b60405180910390a38093505050509392505050565b5f5f9054906101000a900473ffffffffffffffffffffffffffffffffffffffff1673ffffffffffffffffffffffffffffffffffffffff163373ffffffffffffffffffffffffffffffffffffffff161461172f576040517f08c379a0000000000000000000000000000000000000000000000000000000008152600401611726906145db565b60405180910390fd5b60016004811115611743576117426139c7565b5b60035f8373ffffffffffffffffffffffffffffffffffffffff1673ffffffffffffffffffffffffffffffffffffffff1681526020019081526020015f205f0160159054906101000a900460ff1660048111156117a2576117a16139c7565b5b146117e2576040517f08c379a00000000000000000000000000000000000000000000000000000000081526004016117d990614643565b60405180910390fd5b6003805f8373ffffffffffffffffffffffffffffffffffffffff1673ffffffffffffffffffffffffffffffffffffffff1681526020019081526020015f205f0160156101000a81548160ff02191690836004811115611844576118436139c7565b5b02179055508073ffffffffffffffffffffffffffffffffffffffff167f6aaba3fb60caa6fa87766b9168f994d08a8f30691a4faf70eb407f9c8e0a1ea5600342604051611892929190614661565b60405180910390a250565b6004602052805f5260405f205f91509050805f0154908060010180546118c2906146b5565b80601f01602080910402602001604051908101604052809291908181526020018280546118ee906146b5565b80156119395780601f1061191057610100808354040283529160200191611939565b820191905f5260205f20905b81548152906001019060200180831161191c57829003601f168201915b50505050509080600201805461194e906146b5565b80601f016020809104026020016040519081016040528092919081815260200182805461197a906146b5565b80156119c55780601f1061199c576101008083540402835291602001916119c5565b820191905f5260205f20905b8154815290600101906020018083116119a857829003601f168201915b505050505090806003015f9054906101000a900473ffffffffffffffffffffffffffffffffffffffff1690806004015490806005015490806006015f9054906101000a900460ff16905087565b606060075f8373ffffffffffffffffffffffffffffffffffffffff1673ffffffffffffffffffffffffffffffffffffffff1681526020019081526020015f20805480602002602001604051908101604052809291908181526020018280548015611a9957602002820191905f5260205f20905b815481526020019060010190808311611a85575b50505050509050919050565b5f60026004811115611aba57611ab96139c7565b5b60035f3373ffffffffffffffffffffffffffffffffffffffff1673ffffffffffffffffffffffffffffffffffffffff1681526020019081526020015f205f0160159054906101000a900460ff166004811115611b1957611b186139c7565b5b14611b59576040517f08c379a0000000000000000000000000000000000000000000000000000000008152600401611b5090613f0b565b60405180910390fd5b5f855111611b9c576040517f08c379a0000000000000000000000000000000000000000000000000000000008152600401611b939061472f565b60405180910390fd5b5f845111611bdf576040517f08c379a0000000000000000000000000000000000000000000000000000000008152600401611bd690614797565b60405180910390fd5b5f8211611c21576040517f08c379a0000000000000000000000000000000000000000000000000000000008152600401611c1890614825565b60405180910390fd5b5f60035f3373ffffffffffffffffffffffffffffffffffffffff1673ffffffffffffffffffffffffffffffffffffffff1681526020019081526020015f205f0160149054906101000a900460ff16905060026005811115611c8557611c846139c7565b5b816005811115611c9857611c976139c7565b5b03611ce4575f8414611cdf576040517f08c379a0000000000000000000000000000000000000000000000000000000008152600401611cd6906148b3565b60405180910390fd5b611e23565b60036005811115611cf857611cf76139c7565b5b816005811115611d0b57611d0a6139c7565b5b1480611d3b575060046005811115611d2657611d256139c7565b5b816005811115611d3957611d386139c7565b5b145b15611de7575f8411611d82576040517f08c379a0000000000000000000000000000000000000000000000000000000008152600401611d7990614941565b60405180910390fd5b60045f8581526020019081526020015f206006015f9054906101000a900460ff16611de2576040517f08c379a0000000000000000000000000000000000000000000000000000000008152600401611dd9906149a9565b60405180910390fd5b611e22565b6040517f08c379a0000000000000000000000000000000000000000000000000000000008152600401611e1990614a37565b60405180910390fd5b5b60015f815480929190611e35906140f6565b91905055505f60015490506040518060e001604052808281526020018881526020018781526020013373ffffffffffffffffffffffffffffffffffffffff1681526020018681526020014281526020016001151581525060045f8381526020019081526020015f205f820151815f01556020820151816001019081611eba9190614bf5565b506040820151816002019081611ed09190614bf5565b506060820151816003015f6101000a81548173ffffffffffffffffffffffffffffffffffffffff021916908373ffffffffffffffffffffffffffffffffffffffff1602179055506080820151816004015560a0820151816005015560c0820151816006015f6101000a81548160ff0219169083151502179055509050508360065f3373ffffffffffffffffffffffffffffffffffffffff1673ffffffffffffffffffffffffffffffffffffffff1681526020019081526020015f205f8381526020019081526020015f208190555060075f3373ffffffffffffffffffffffffffffffffffffffff1673ffffffffffffffffffffffffffffffffffffffff1681526020019081526020015f2081908060018154018082558091505060019003905f5260205f20015f90919091909150553373ffffffffffffffffffffffffffffffffffffffff16817f463ec2a62c46678a81e23cde640446ca4b512f102bb3309cf5a3e2a4ae8314648988604051612048929190614cc4565b60405180910390a38092505050949350505050565b5f60026004811115612072576120716139c7565b5b60035f8473ffffffffffffffffffffffffffffffffffffffff1673ffffffffffffffffffffffffffffffffffffffff1681526020019081526020015f205f0160159054906101000a900460ff1660048111156120d1576120d06139c7565b5b149050919050565b6120e1613312565b60035f8373ffffffffffffffffffffffffffffffffffffffff1673ffffffffffffffffffffffffffffffffffffffff1681526020019081526020015f206040518060a00160405290815f82015f9054906101000a900473ffffffffffffffffffffffffffffffffffffffff1673ffffffffffffffffffffffffffffffffffffffff1673ffffffffffffffffffffffffffffffffffffffff1681526020015f820160149054906101000a900460ff1660058111156121a1576121a06139c7565b5b60058111156121b3576121b26139c7565b5b81526020015f820160159054906101000a900460ff1660048111156121db576121da6139c7565b5b60048111156121ed576121ec6139c7565b5b8152602001600182018054612201906146b5565b80601f016020809104026020016040519081016040528092919081815260200182805461222d906146b5565b80156122785780601f1061224f57610100808354040283529160200191612278565b820191905f5260205f20905b81548152906001019060200180831161225b57829003601f168201915b505050505081526020016002820154815250509050919050565b6005602052805f5260405f205f91509050805f015490806001015490806002015f9054906101000a900473ffffffffffffffffffffffffffffffffffffffff1690806003015f9054906101000a900473ffffffffffffffffffffffffffffffffffffffff1690806004015490806005015f9054906101000a900460ff16908060060154908060070154905088565b6008602052815f5260405f208181548110612339575f80fd5b905f5260205f20015f91509150505481565b6003602052805f5260405f205f91509050805f015f9054906101000a900473ffffffffffffffffffffffffffffffffffffffff1690805f0160149054906101000a900460ff1690805f0160159054906101000a900460ff16908060010180546123b3906146b5565b80601f01602080910402602001604051908101604052809291908181526020018280546123df906146b5565b801561242a5780601f106124015761010080835404028352916020019161242a565b820191905f5260205f20905b81548152906001019060200180831161240d57829003601f168201915b5050505050908060020154905085565b612442613377565b5f60055f8481526020019081526020015f205f015403612497576040517f08c379a000000000000000000000000000000000000000000000000000000000815260040161248e90613f73565b60405180910390fd5b60055f8381526020019081526020015f20604051806101000160405290815f820154815260200160018201548152602001600282015f9054906101000a900473ffffffffffffffffffffffffffffffffffffffff1673ffffffffffffffffffffffffffffffffffffffff1673ffffffffffffffffffffffffffffffffffffffff168152602001600382015f9054906101000a900473ffffffffffffffffffffffffffffffffffffffff1673ffffffffffffffffffffffffffffffffffffffff1673ffffffffffffffffffffffffffffffffffffffff16815260200160048201548152602001600582015f9054906101000a900460ff16600281111561259f5761259e6139c7565b5b60028111156125b1576125b06139c7565b5b8152602001600682015481526020016007820154815250509050919050565b606060045f8381526020019081526020015f206006015f9054906101000a900460ff16612632576040517f08c379a0000000000000000000000000000000000000000000000000000000008152600401612629906140ab565b60405180910390fd5b5f5f90505f600190505b6002548111612682578360055f8381526020019081526020015f20600101540361266f57818061266b906140f6565b9250505b808061267a906140f6565b91505061263c565b505f8167ffffffffffffffff81111561269e5761269d6137df565b5b6040519080825280602002602001820160405280156126cc5781602001602082028036833780820191505090505b5090505f5f90505f600190505b600254811161273f578560055f8381526020019081526020015f20600101540361272c578083838151811061271157612710614170565b5b6020026020010181815250508180612728906140f6565b9250505b8080612737906140f6565b9150506126d9565b50819350505050919050565b6006602052815f5260405f20602052805f5260405f205f91509150505481565b60015481565b5f6005811115612784576127836139c7565b5b826005811115612797576127966139c7565b5b036127d7576040517f08c379a00000000000000000000000000000000000000000000000000000000081526004016127ce90614d3c565b60405180910390fd5b600160058111156127eb576127ea6139c7565b5b8260058111156127fe576127fd6139c7565b5b0361283e576040517f08c379a000000000000000000000000000000000000000000000000000000000815260040161283590614da4565b60405180910390fd5b5f6004811115612851576128506139c7565b5b60035f3373ffffffffffffffffffffffffffffffffffffffff1673ffffffffffffffffffffffffffffffffffffffff1681526020019081526020015f205f0160159054906101000a900460ff1660048111156128b0576128af6139c7565b5b146128f0576040517f08c379a00000000000000000000000000000000000000000000000000000000081526004016128e790614e0c565b60405180910390fd5b5f815111612933576040517f08c379a000000000000000000000000000000000000000000000000000000000815260040161292a90614797565b60405180910390fd5b6040518060a001604052803373ffffffffffffffffffffffffffffffffffffffff16815260200183600581111561296d5761296c6139c7565b5b815260200160016004811115612986576129856139c7565b5b81526020018281526020014281525060035f3373ffffffffffffffffffffffffffffffffffffffff1673ffffffffffffffffffffffffffffffffffffffff1681526020019081526020015f205f820151815f015f6101000a81548173ffffffffffffffffffffffffffffffffffffffff021916908373ffffffffffffffffffffffffffffffffffffffff1602179055506020820151815f0160146101000a81548160ff02191690836005811115612a4057612a3f6139c7565b5b02179055506040820151815f0160156101000a81548160ff02191690836004811115612a6f57612a6e6139c7565b5b02179055506060820151816001019081612a899190614bf5565b50608082015181600201559050503373ffffffffffffffffffffffffffffffffffffffff167feea238307e4577ec1b8645d63505c2d57767cfc074bb5ab579a615525f07a2578342604051612adf929190614e2a565b60405180910390a25050565b5f5f9054906101000a900473ffffffffffffffffffffffffffffffffffffffff1673ffffffffffffffffffffffffffffffffffffffff163373ffffffffffffffffffffffffffffffffffffffff1614612b79576040517f08c379a0000000000000000000000000000000000000000000000000000000008152600401612b70906145db565b60405180910390fd5b60016004811115612b8d57612b8c6139c7565b5b60035f8373ffffffffffffffffffffffffffffffffffffffff1673ffffffffffffffffffffffffffffffffffffffff1681526020019081526020015f205f0160159054906101000a900460ff166004811115612bec57612beb6139c7565b5b14612c2c576040517f08c379a0000000000000000000000000000000000000000000000000000000008152600401612c2390614643565b60405180910390fd5b600260035f8373ffffffffffffffffffffffffffffffffffffffff1673ffffffffffffffffffffffffffffffffffffffff1681526020019081526020015f205f0160156101000a81548160ff02191690836004811115612c8f57612c8e6139c7565b5b02179055508073ffffffffffffffffffffffffffffffffffffffff167f6aaba3fb60caa6fa87766b9168f994d08a8f30691a4faf70eb407f9c8e0a1ea5600242604051612cdd929190614661565b60405180910390a250565b612cf06133f2565b60045f8381526020019081526020015f206006015f9054906101000a900460ff16612d50576040517f08c379a0000000000000000000000000000000000000000000000000000000008152600401612d47906140ab565b60405180910390fd5b60045f8381526020019081526020015f206040518060e00160405290815f8201548152602001600182018054612d85906146b5565b80601f0160208091040260200160405190810160405280929190818152602001828054612db1906146b5565b8015612dfc5780601f10612dd357610100808354040283529160200191612dfc565b820191905f5260205f20905b815481529060010190602001808311612ddf57829003601f168201915b50505050508152602001600282018054612e15906146b5565b80601f0160208091040260200160405190810160405280929190818152602001828054612e41906146b5565b8015612e8c5780601f10612e6357610100808354040283529160200191612e8c565b820191905f5260205f20905b815481529060010190602001808311612e6f57829003601f168201915b50505050508152602001600382015f9054906101000a900473ffffffffffffffffffffffffffffffffffffffff1673ffffffffffffffffffffffffffffffffffffffff1673ffffffffffffffffffffffffffffffffffffffff1681526020016004820154815260200160058201548152602001600682015f9054906101000a900460ff1615151515815250509050919050565b60016004811115612f3357612f326139c7565b5b60035f3373ffffffffffffffffffffffffffffffffffffffff1673ffffffffffffffffffffffffffffffffffffffff1681526020019081526020015f205f0160159054906101000a900460ff166004811115612f9257612f916139c7565b5b14612fd2576040517f08c379a0000000000000000000000000000000000000000000000000000000008152600401612fc990614e9b565b60405180910390fd5b600460035f3373ffffffffffffffffffffffffffffffffffffffff1673ffffffffffffffffffffffffffffffffffffffff1681526020019081526020015f205f0160156101000a81548160ff02191690836004811115613035576130346139c7565b5b02179055503373ffffffffffffffffffffffffffffffffffffffff167f6aaba3fb60caa6fa87766b9168f994d08a8f30691a4faf70eb407f9c8e0a1ea5600442604051613083929190614661565b60405180910390a2565b5f5f9054906101000a900473ffffffffffffffffffffffffffffffffffffffff1681565b6007602052815f5260405f2081815481106130ca575f80fd5b905f5260205f20015f91509150505481565b5f60085f8473ffffffffffffffffffffffffffffffffffffffff1673ffffffffffffffffffffffffffffffffffffffff1681526020019081526020015f2090505f5f90505b81805490508110156131d0578282828154811061314157613140614170565b5b905f5260205f200154036131c3578160018380549050613161919061413d565b8154811061317257613171614170565b5b905f5260205f20015482828154811061318e5761318d614170565b5b905f5260205f200181905550818054806131ab576131aa614eb9565b5b600190038181905f5260205f20015f905590556131d0565b8080600101915050613121565b50505050565b5f600260058111156131eb576131ea6139c7565b5b8360058111156131fe576131fd6139c7565b5b14801561322f57506003600581111561321a576132196139c7565b5b82600581111561322d5761322c6139c7565b5b145b1561323d576001905061330c565b60036005811115613251576132506139c7565b5b836005811115613264576132636139c7565b5b1480156132955750600460058111156132805761327f6139c7565b5b826005811115613293576132926139c7565b5b145b156132a3576001905061330c565b600460058111156132b7576132b66139c7565b5b8360058111156132ca576132c96139c7565b5b1480156132fa57506005808111156132e5576132e46139c7565b5b8260058111156132f8576132f76139c7565b5b145b15613308576001905061330c565b5f90505b92915050565b6040518060a001604052805f73ffffffffffffffffffffffffffffffffffffffff1681526020015f600581111561334c5761334b6139c7565b5b81526020015f6004811115613364576133636139c7565b5b8152602001606081526020015f81525090565b6040518061010001604052805f81526020015f81526020015f73ffffffffffffffffffffffffffffffffffffffff1681526020015f73ffffffffffffffffffffffffffffffffffffffff1681526020015f81526020015f60028111156133e0576133df6139c7565b5b81526020015f81526020015f81525090565b6040518060e001604052805f815260200160608152602001606081526020015f73ffffffffffffffffffffffffffffffffffffffff1681526020015f81526020015f81526020015f151581525090565b5f604051905090565b5f5ffd5b5f5ffd5b5f73ffffffffffffffffffffffffffffffffffffffff82169050919050565b5f61347c82613453565b9050919050565b61348c81613472565b8114613496575f5ffd5b50565b5f813590506134a781613483565b92915050565b5f819050919050565b6134bf816134ad565b81146134c9575f5ffd5b50565b5f813590506134da816134b6565b92915050565b5f5f604083850312156134f6576134f561344b565b5b5f61350385828601613499565b9250506020613514858286016134cc565b9150509250929050565b613527816134ad565b82525050565b5f6020820190506135405f83018461351e565b92915050565b5f6020828403121561355b5761355a61344b565b5b5f613568848285016134cc565b91505092915050565b5f81519050919050565b5f82825260208201905092915050565b5f819050602082019050919050565b6135a3816134ad565b82525050565b5f6135b4838361359a565b60208301905092915050565b5f602082019050919050565b5f6135d682613571565b6135e0818561357b565b93506135eb8361358b565b805f5b8381101561361b57815161360288826135a9565b975061360d836135c0565b9250506001810190506135ee565b5085935050505092915050565b5f6020820190508181035f83015261364081846135cc565b905092915050565b5f6020828403121561365d5761365c61344b565b5b5f61366a84828501613499565b91505092915050565b5f5f5f6060848603121561368a5761368961344b565b5b5f613697868287016134cc565b93505060206136a886828701613499565b92505060406136b9868287016134cc565b9150509250925092565b5f81519050919050565b5f82825260208201905092915050565b8281835e5f83830152505050565b5f601f19601f8301169050919050565b5f613705826136c3565b61370f81856136cd565b935061371f8185602086016136dd565b613728816136eb565b840191505092915050565b61373c81613472565b82525050565b5f8115159050919050565b61375681613742565b82525050565b5f60e08201905061376f5f83018a61351e565b818103602083015261378181896136fb565b9050818103604083015261379581886136fb565b90506137a46060830187613733565b6137b1608083018661351e565b6137be60a083018561351e565b6137cb60c083018461374d565b98975050505050505050565b5f5ffd5b5f5ffd5b7f4e487b71000000000000000000000000000000000000000000000000000000005f52604160045260245ffd5b613815826136eb565b810181811067ffffffffffffffff82111715613834576138336137df565b5b80604052505050565b5f613846613442565b9050613852828261380c565b919050565b5f67ffffffffffffffff821115613871576138706137df565b5b61387a826136eb565b9050602081019050919050565b828183375f83830152505050565b5f6138a76138a284613857565b61383d565b9050828152602081018484840111156138c3576138c26137db565b5b6138ce848285613887565b509392505050565b5f82601f8301126138ea576138e96137d7565b5b81356138fa848260208601613895565b91505092915050565b5f5f5f5f6080858703121561391b5761391a61344b565b5b5f85013567ffffffffffffffff8111156139385761393761344f565b5b613944878288016138d6565b945050602085013567ffffffffffffffff8111156139655761396461344f565b5b613971878288016138d6565b9350506040613982878288016134cc565b9250506060613993878288016134cc565b91505092959194509250565b5f6020820190506139b25f83018461374d565b92915050565b6139c181613472565b82525050565b7f4e487b71000000000000000000000000000000000000000000000000000000005f52602160045260245ffd5b60068110613a0557613a046139c7565b5b50565b5f819050613a15826139f4565b919050565b5f613a2482613a08565b9050919050565b613a3481613a1a565b82525050565b60058110613a4b57613a4a6139c7565b5b50565b5f819050613a5b82613a3a565b919050565b5f613a6a82613a4e565b9050919050565b613a7a81613a60565b82525050565b5f82825260208201905092915050565b5f613a9a826136c3565b613aa48185613a80565b9350613ab48185602086016136dd565b613abd816136eb565b840191505092915050565b5f60a083015f830151613add5f8601826139b8565b506020830151613af06020860182613a2b565b506040830151613b036040860182613a71565b5060608301518482036060860152613b1b8282613a90565b9150506080830151613b30608086018261359a565b508091505092915050565b5f6020820190508181035f830152613b538184613ac8565b905092915050565b60038110613b6c57613b6b6139c7565b5b50565b5f819050613b7c82613b5b565b919050565b5f613b8b82613b6f565b9050919050565b613b9b81613b81565b82525050565b5f61010082019050613bb55f83018b61351e565b613bc2602083018a61351e565b613bcf6040830189613733565b613bdc6060830188613733565b613be9608083018761351e565b613bf660a0830186613b92565b613c0360c083018561351e565b613c1060e083018461351e565b9998505050505050505050565b613c2681613a1a565b82525050565b613c3581613a60565b82525050565b5f60a082019050613c4e5f830188613733565b613c5b6020830187613c1d565b613c686040830186613c2c565b8181036060830152613c7a81856136fb565b9050613c89608083018461351e565b9695505050505050565b613c9c81613b81565b82525050565b61010082015f820151613cb75f85018261359a565b506020820151613cca602085018261359a565b506040820151613cdd60408501826139b8565b506060820151613cf060608501826139b8565b506080820151613d03608085018261359a565b5060a0820151613d1660a0850182613c93565b5060c0820151613d2960c085018261359a565b5060e0820151613d3c60e085018261359a565b50505050565b5f61010082019050613d565f830184613ca2565b92915050565b60068110613d68575f5ffd5b50565b5f81359050613d7981613d5c565b92915050565b5f5f60408385031215613d9557613d9461344b565b5b5f613da285828601613d6b565b925050602083013567ffffffffffffffff811115613dc357613dc261344f565b5b613dcf858286016138d6565b9150509250929050565b613de281613742565b82525050565b5f60e083015f830151613dfd5f86018261359a565b5060208301518482036020860152613e158282613a90565b91505060408301518482036040860152613e2f8282613a90565b9150506060830151613e4460608601826139b8565b506080830151613e57608086018261359a565b5060a0830151613e6a60a086018261359a565b5060c0830151613e7d60c0860182613dd9565b508091505092915050565b5f6020820190508181035f830152613ea08184613de8565b905092915050565b5f602082019050613ebb5f830184613733565b92915050565b7f55736572206d75737420626520617070726f76656400000000000000000000005f82015250565b5f613ef56015836136cd565b9150613f0082613ec1565b602082019050919050565b5f6020820190508181035f830152613f2281613ee9565b9050919050565b7f5472616e7366657220646f6573206e6f742065786973740000000000000000005f82015250565b5f613f5d6017836136cd565b9150613f6882613f29565b602082019050919050565b5f6020820190508181035f830152613f8a81613f51565b9050919050565b7f4f6e6c7920726563697069656e742063616e2072656a656374000000000000005f82015250565b5f613fc56019836136cd565b9150613fd082613f91565b602082019050919050565b5f6020820190508181035f830152613ff281613fb9565b9050919050565b7f5472616e73666572206973206e6f742070656e64696e670000000000000000005f82015250565b5f61402d6017836136cd565b915061403882613ff9565b602082019050919050565b5f6020820190508181035f83015261405a81614021565b9050919050565b7f546f6b656e20646f6573206e6f742065786973740000000000000000000000005f82015250565b5f6140956014836136cd565b91506140a082614061565b602082019050919050565b5f6020820190508181035f8301526140c281614089565b9050919050565b7f4e487b71000000000000000000000000000000000000000000000000000000005f52601160045260245ffd5b5f614100826134ad565b91507fffffffffffffffffffffffffffffffffffffffffffffffffffffffffffffffff8203614132576141316140c9565b5b600182019050919050565b5f614147826134ad565b9150614152836134ad565b925082820390508181111561416a576141696140c9565b5b92915050565b7f4e487b71000000000000000000000000000000000000000000000000000000005f52603260045260245ffd5b7f4f6e6c7920726563697069656e742063616e20616363657074000000000000005f82015250565b5f6141d16019836136cd565b91506141dc8261419d565b602082019050919050565b5f6020820190508181035f8301526141fe816141c5565b9050919050565b7f53656e6465722068617320696e73756666696369656e742062616c616e6365005f82015250565b5f614239601f836136cd565b915061424482614205565b602082019050919050565b5f6020820190508181035f8301526142668161422d565b9050919050565b5f614277826134ad565b9150614282836134ad565b925082820190508082111561429a576142996140c9565b5b92915050565b7f496e76616c696420726563697069656e742061646472657373000000000000005f82015250565b5f6142d46019836136cd565b91506142df826142a0565b602082019050919050565b5f6020820190508181035f830152614301816142c8565b9050919050565b7f43616e6e6f74207472616e7366657220746f20796f757273656c6600000000005f82015250565b5f61433c601b836136cd565b915061434782614308565b602082019050919050565b5f6020820190508181035f83015261436981614330565b9050919050565b7f416d6f756e74206d7573742062652067726561746572207468616e20300000005f82015250565b5f6143a4601d836136cd565b91506143af82614370565b602082019050919050565b5f6020820190508181035f8301526143d181614398565b9050919050565b7f496e73756666696369656e742062616c616e63650000000000000000000000005f82015250565b5f61440c6014836136cd565b9150614417826143d8565b602082019050919050565b5f6020820190508181035f83015261443981614400565b9050919050565b7f526563697069656e74206d75737420626520617070726f7665640000000000005f82015250565b5f614474601a836136cd565b915061447f82614440565b602082019050919050565b5f6020820190508181035f8301526144a181614468565b9050919050565b7f496e76616c6964207472616e7366657220666c6f7720666f72207468657365205f8201527f726f6c6573000000000000000000000000000000000000000000000000000000602082015250565b5f6145026025836136cd565b915061450d826144a8565b604082019050919050565b5f6020820190508181035f83015261452f816144f6565b9050919050565b5f6060820190506145495f830186613733565b6145566020830185613733565b614563604083018461351e565b949350505050565b7f4f6e6c792061646d696e2063616e20706572666f726d207468697320616374695f8201527f6f6e000000000000000000000000000000000000000000000000000000000000602082015250565b5f6145c56022836136cd565b91506145d08261456b565b604082019050919050565b5f6020820190508181035f8301526145f2816145b9565b9050919050565b7f55736572206d75737420626520696e2050656e64696e672073746174757300005f82015250565b5f61462d601e836136cd565b9150614638826145f9565b602082019050919050565b5f6020820190508181035f83015261465a81614621565b9050919050565b5f6040820190506146745f830185613c2c565b614681602083018461351e565b9392505050565b7f4e487b71000000000000000000000000000000000000000000000000000000005f52602260045260245ffd5b5f60028204905060018216806146cc57607f821691505b6020821081036146df576146de614688565b5b50919050565b7f4e616d652063616e6e6f7420626520656d7074790000000000000000000000005f82015250565b5f6147196014836136cd565b9150614724826146e5565b602082019050919050565b5f6020820190508181035f8301526147468161470d565b9050919050565b7f4d657461646174612063616e6e6f7420626520656d70747900000000000000005f82015250565b5f6147816018836136cd565b915061478c8261474d565b602082019050919050565b5f6020820190508181035f8301526147ae81614775565b9050919050565b7f496e697469616c20616d6f756e74206d757374206265206772656174657220745f8201527f68616e2030000000000000000000000000000000000000000000000000000000602082015250565b5f61480f6025836136cd565b915061481a826147b5565b604082019050919050565b5f6020820190508181035f83015261483c81614803565b9050919050565b7f50726f64756365722063616e206f6e6c792063726561746520726177206d61745f8201527f657269616c7320286e6f20706172656e74290000000000000000000000000000602082015250565b5f61489d6032836136cd565b91506148a882614843565b604082019050919050565b5f6020820190508181035f8301526148ca81614891565b9050919050565b7f466163746f72792f52657461696c6572206d75737420737065636966792061205f8201527f706172656e7420746f6b656e0000000000000000000000000000000000000000602082015250565b5f61492b602c836136cd565b9150614936826148d1565b604082019050919050565b5f6020820190508181035f8301526149588161491f565b9050919050565b7f506172656e7420746f6b656e20646f6573206e6f7420657869737400000000005f82015250565b5f614993601b836136cd565b915061499e8261495f565b602082019050919050565b5f6020820190508181035f8301526149c081614987565b9050919050565b7f4f6e6c792050726f64756365722c20466163746f72792c206f722052657461695f8201527f6c65722063616e2063726561746520746f6b656e730000000000000000000000602082015250565b5f614a216035836136cd565b9150614a2c826149c7565b604082019050919050565b5f6020820190508181035f830152614a4e81614a15565b9050919050565b5f819050815f5260205f209050919050565b5f6020601f8301049050919050565b5f82821b905092915050565b5f60088302614ab17fffffffffffffffffffffffffffffffffffffffffffffffffffffffffffffffff82614a76565b614abb8683614a76565b95508019841693508086168417925050509392505050565b5f819050919050565b5f614af6614af1614aec846134ad565b614ad3565b6134ad565b9050919050565b5f819050919050565b614b0f83614adc565b614b23614b1b82614afd565b848454614a82565b825550505050565b5f5f905090565b614b3a614b2b565b614b45818484614b06565b505050565b5b81811015614b6857614b5d5f82614b32565b600181019050614b4b565b5050565b601f821115614bad57614b7e81614a55565b614b8784614a67565b81016020851015614b96578190505b614baa614ba285614a67565b830182614b4a565b50505b505050565b5f82821c905092915050565b5f614bcd5f1984600802614bb2565b1980831691505092915050565b5f614be58383614bbe565b9150826002028217905092915050565b614bfe826136c3565b67ffffffffffffffff811115614c1757614c166137df565b5b614c2182546146b5565b614c2c828285614b6c565b5f60209050601f831160018114614c5d575f8415614c4b578287015190505b614c558582614bda565b865550614cbc565b601f198416614c6b86614a55565b5f5b82811015614c9257848901518255600182019150602085019450602081019050614c6d565b86831015614caf5784890151614cab601f891682614bbe565b8355505b6001600288020188555050505b505050505050565b5f6040820190508181035f830152614cdc81856136fb565b9050614ceb602083018461351e565b9392505050565b7f43616e6e6f74207265676973746572207769746820526f6c652e4e6f6e6500005f82015250565b5f614d26601e836136cd565b9150614d3182614cf2565b602082019050919050565b5f6020820190508181035f830152614d5381614d1a565b9050919050565b7f43616e6e6f742072656769737465722061732041646d696e00000000000000005f82015250565b5f614d8e6018836136cd565b9150614d9982614d5a565b602082019050919050565b5f6020820190508181035f830152614dbb81614d82565b9050919050565b7f5573657220616c726561647920726567697374657265640000000000000000005f82015250565b5f614df66017836136cd565b9150614e0182614dc2565b602082019050919050565b5f6020820190508181035f830152614e2381614dea565b9050919050565b5f604082019050614e3d5f830185613c1d565b614e4a602083018461351e565b9392505050565b7f4f6e6c792070656e64696e672075736572732063616e2063616e63656c0000005f82015250565b5f614e85601d836136cd565b9150614e9082614e51565b602082019050919050565b5f6020820190508181035f830152614eb281614e79565b9050919050565b7f4e487b71000000000000000000000000000000000000000000000000000000005f52603160045260245ffdfea2646970667358221220461607fbfa7a67b4253fd5233882ad171115fd79c25ed378a3ee7fd86089a25c64736f6c634300081e0033","linkReferences":{}},"methodIdentifiers":{"acceptTransfer(uint256)":"274fae7c","admin()":"f851a440","approveUser(address)":"d624fdb6","balanceOf(address,uint256)":"00fdd58e","balances(address,uint256)":"cbf1304d","cancelRegistration()":"e5a078a7","createToken(string,string,uint256,uint256)":"56f698a3","getPendingTransfers(address)":"376f383d","getToken(uint256)":"e4b50cb8","getTokenHistory(uint256)":"2142ae2c","getTokenTransferHistory(uint256)":"ca409cd5","getTransfer(uint256)":"c16fe907","getUser(address)":"6f77926b","getUserTokens(address)":"519dc8d2","initiateTransfer(uint256,address,uint256)":"40f50adb","isApproved(address)":"673448dd","pendingTransfers(address,uint256)":"9ec67aca","register(uint8,string)":"d3eb9541","rejectTransfer(uint256)":"12effc32","rejectUser(address)":"4dc92885","tokenCounter()":"d082e381","tokens(uint256)":"4f64b2be","transferCounter()":"3cf8ddf2","transfers(uint256)":"9377d711","userTokens(address,uint256)":"f9f411d8","users(address)":"a87430ba"},"id":19}